:0B000E001205C812017212059A80F85A
:03000B0002031AD3
:10031A00C0E0C0F0C083C082C0D075D000C000C0A9
:10032A0001C002C003C004C005C006C007C28C05D4
:10033A0015120509758CFF758ACED28CD007D006A6
:10034A00D005D004D003D002D001D000D0D0D082C2
:07035A00D083D0F0D0E032A7
:03001B000203617C
:10036100C0E0C0F0C083C082C0D075D000C000C062
:1003710001C002C003C004C005C006C007C28E127E
:1003810004D6758DF8758B30D28ED007D006D00586
:10039100D004D003D002D001D000D0D0D082D083FD
:0503A100D0F0D0E032B5
:10026E003F065B4F666D7D077F6F0404010400043B
:10027E00040104002EE02EE0050501050005050130
:10028E0005002EE02EE0060601050005050105001D
:10029E002EE02EE0090903050005050305002EE0FA
:1002AE002EE00D0D05070307070507032EE02EE0D0
:0C02BE000200030004000201030104011F
:10049F00011500011E00011C00040F0201010201E1
:1004AF001F00011400010E00011D00011300021AAC
:1004BF000000020C000002180000021600000208E3
:0604CF000001020A000119
:040678007F0A7E0077
:10067C00D3EF9400EE64809480400B7DDCDDFEEFC4
:06068C001F70ED1E80EA64
:010692002245
:10001E00C2877F017E0012067C30A00630A103202D
:10002E00A205C2A312067830A00630A10320A22199
:10003E0020A00830A0FDD2A37F012220A10830A16C
:10004E00FDD2A37F022220A20830A2FDD2A37F03FD
:10005E0022D287C2A77F017E0012067C30A0063016
:10006E00A10320A20312067830A00630A10320A21D
:10007E002120A00830A0FDD2A37F042220A10830A9
:10008E00A1FDD2A37F052220A20830A2FDD2A37F1C
:10009E000622D2A7C2A67F017E0012067C30A006E1
:1000AE0030A10320A20312067830A00630A103204F
:1000BE00A22120A00830A0FDD2A37F072220A108F4
:1000CE0030A1FDD2A37F082220A20830A2FDD2A328
:0800DE007F0922D2A67F002257
:1001720012001EEF24FE601214601324FB6014149C
:10018200604524087067AF1F8006AF0E8002AF1B68
:100192000206C10514E514C394064003E4F514AF46
:1001A200141206C1E51425E024BFF582E43402F5F9
:1001B20083E493F51DE51425E024BEF582E43402C0
:1001C200F583E493F51322B28CA28C928EA28CE476
:1001D20033FFE51F048FF0A4FF1206C1C2B7C2B6F7
:0E01E200C2A4C2A5E4F51AF51BF50CF50D221A
:1005C800D2AF758911758CFF758ACED2A9C28C7588
:1005D8008DF8758B30D2ABC28EC2B2D2B3C297D26D
:0A05E800A3C2B7C2B6C2A4C2A52286
:1005F200D3E50D951BE50C951A400BE51F651360BD
:1006020018AF1302065CAB20AA21A9221201F0F551
:0A0612001E900001120209F51C22DF
:10069300AB20AA21A922900002120209F51E9000A4
:0706A30003120209F51C22FD
:1006AA00AB20AA21A922900006120209F51E900089
:0706BA0007120209F51C22E2
:10042B00D3E50D951BE50C951A4018E51F651D606E
:10043B0028AF1D12065CE50D2420F51BE50C3403DB
:10044B00F51A22AB20AA21A922900004120209F569
:0A045B001E900005120209F51C2294
:10046500D3E50D951BE50C951A4018E51F651D6034
:1004750028AF1D12065CE50D2420F51BE50C3403A1
:10048500F51A22AB20AA21A922900008120209F52B
:0A0495001E900009120209F51C2256
:10053C00AB20AA21A92290000A120236FFAEF0EFDE
:10054C001FAC0670011E4C6011EF54036006D2A460
:0E055C00D2B680EBC2A4C2B680E5C2A4C2B67D
:01056A00226E
:10056B00AB20AA21A92290000C120236FFAEF0EFAD
:10057B001FAC0670011E4C6011EF54036006D2B71E
:0E058B00D2A580EBC2B7C2A580E5C2B7C2A55B
:01059900223F
:10061C007F887E13EF1FAC0670011E4C6011EF54E7
:10062C00036006D2B7D2A480EBC2B7C2A480E5C2E5
:03063C00B7C2A49E
:01063F002298
:1002CA00E4F526F527F524752505120640E52515DA
:1002DA002570021524D3E5259401E524940050EAFB
:1002EA001201720527E5277002052614FF1206C1BE
:1002FA007524017525F4120678B2A3E52515257033
:10030A00021524D3E5259401E524940050E880D011
:1003A60030934130923E30913B309038120640E512
:1003B6000EC394045021740F250EF8E6FDB4010512
:1003C60012053C8009EDB4020512056B8000120689
:1003D6001CD28CD28E80061202CAE4F50E050EAF30
:0503E6000E1206C12209
:10064000C28EC28CE4F515F51AF51BF50CF50DF507
:0C0650001EF51CC2A5C2A4C2B6C2B7228F
:1004D60030930C3092093091063090030203A63017
:1004E600930302042B309003020465309205309189
:1004F60002800C3092030206933091030206AA1280
:0305060005F222D9
:10050900E515D39413401DE4F515D2A4D2B7C2A5BD
:10051900C2B6050DE50DAE0C7002050C144E700443
:10052900F51AF51BE515B51E02C2B7E515B51C028E
:03053900C2A42237
:0E06C100EF75F00A84E5F090026E93F52322A7
:10059A00C283C285C280C281C282C286C284E52366
:1005AA00139284E523A2E19286A2E29282A2E392C6
:0E05BA0081A2E49280A2E59285A2E6928322BD
:10065C008F1FEF75F00EA42478F9740235F0752015
:0C066C00FFF5218922E51F04FF0206C1F2
:1003EB00A2B5E43365097002E50860110519E5193A
:1003FB0070020518A2B5E433750800F509A2B4E440
:10040B0033650B7002E50A60160517E517700205D8
:0F041B001614FF1206C1A2B4E433750A00F50BE4
:01042A0022AF
:030000000200E615
:0C00E600787FE4F6D8FD75812702012D1B
:1001F000BB010689828A83E0225002E722BBFE020D
:09020000E32289828A83E493223F
:10020900BB010CE58229F582E5833AF583E02250AA
:1002190006E92582F8E622BBFE06E92582F8E222F4
:0D022900E58229F582E5833AF583E493220E
:10023600BB0110E58229F582E5833AF583E0F5F006
:10024600A3E0225009E92582F886F008E622BBFEE3
:100256000AE92582F8E2F5F008E222E5832AF58329
:08026600E993F5F0A3E99322EE
:1000F20002000EE493A3F8E493A34003F68001F216
:1001020008DFF48029E493A3F85407240CC8C3330E
:10011200C4540F4420C8834004F456800146F6DFDD
:10012200E4800B010204081020408090049FE47ECA
:10013200019360BCA3FF543F30E509541FFEE493D2
:10014200A360010ECF54C025E060A840B8E493A399
:10015200FAE493A3F8E493A3C8C582C8CAC583CAC4
:10016200F0A3C8C582C8CAC583CADFE9DEE780BE7C
:0104D5000026
:00000001FF
