:0B000E001206161202021205BB80F859
:03000B000203CB22
:1003CB00C0E0C0F0C083C082C0D075D000C000C0F8
:1003DB0001C002C003C004C005C006C007C28C0523
:1003EB001512052AD28CD007D006D005D004D00325
:1003FB00D002D001D000D0D0D082D083D0F0D0E0CA
:01040B0032BE
:03001B000202E6F8
:1002E600C0E0C0F0C083C082C0D075D000C000C0DE
:1002F60001C002C003C004C005C006C007C28E12FA
:1003060004F7AB20AA21A922120113FDACF0ECF5EB
:100316008D8D8BD28ED007D006D005D004D003D0D9
:1003260002D001D000D0D0D082D083D0F0D0E0323D
:100280003F065B4F666D7D077F6FFF3805050305F1
:1002900002050503050230D42EE0FF3806060306EA
:1002A00002060603060230D42EE0FF3806060104DB
:1002B0000004040104002EE02EE0FF3809090305C4
:1002C0000005050305002EE02EE0FF380D0D0507A3
:1002D0000307070507032EE02EE0020003000400D9
:0602E0000201030104010C
:1004C000011500011E00011C00040F0201010201C0
:1004D0001F00011400010E00011D00011300021A8B
:1004E0000000020C000002180000021600000208C2
:0604F0000001020A0001F8
:04069C007F0A7E0053
:1006A000D3EF9400EE64809480400B7DDCDDFEEFA0
:0606B0001F70ED1E80EA40
:0106B6002221
:10001E00C2877F017E001206A030A00630A1032009
:10002E00A205C2A312069C30A00630A10320A22175
:10003E0020A00830A0FDD2A37F012220A10830A16C
:10004E00FDD2A37F022220A20830A2FDD2A37F03FD
:10005E0022D287C2A77F017E001206A030A00630F2
:10006E00A10320A20312069C30A00630A10320A2F9
:10007E002120A00830A0FDD2A37F042220A10830A9
:10008E00A1FDD2A37F052220A20830A2FDD2A37F1C
:10009E000622D2A7C2A67F017E001206A030A006BD
:1000AE0030A10320A20312069C30A00630A103202B
:1000BE00A22120A00830A0FDD2A37F072220A108F4
:1000CE0030A1FDD2A37F082220A20830A2FDD2A328
:0800DE007F0922D2A67F002257
:1002020012001EEF24FE601214601324FB6014140B
:10021200604524087067AF1F8006AF0E8002AF1BD7
:100222000206E50514E514C394064003E4F514AF91
:10023200141206E5E51425E024DBF582E43402F528
:1002420083E493F51DE51425E024DAF582E4340213
:10025200F583E493F51322B28CA28C928EA28CE4E5
:1002620033FFE51F048FF0A4FF1206E5C2B7C2B642
:0E027200C2A4C2A5E4F51AF51BF50CF50D2289
:10061600D2AF758912758CA6758AA6D2A9C28C75B9
:100626008DFC758B18D2ABC28EC2B2D2B3C297D232
:0A063600A3C2B7C2B6C2A4C2A52237
:1005E900D3E50D951BE50C951A400BE51F651360C6
:1005F90005AF13020680AB20AA21A922900002129E
:0D06090000E6F51E9000031200E6F51C222D
:1006B700AB20AA21A9229000041200E6F51E9000A3
:0706C700051200E6F51C22FC
:1006CE00AB20AA21A9229000081200E6F51E900088
:0706DE00091200E6F51C22E1
:10044C00D3E50D951BE50C951A4018E51F651D604D
:10045C0012AF1D120680E50D24E8F51BE50C3403E4
:10046C00F51A22AB20AA21A9229000061200E6F56B
:0A047C001E9000071200E6F51C2296
:10048600D3E50D951BE50C951A4018E51F651D6013
:1004960012AF1D120680E50D24E8F51BE50C3403AA
:1004A600F51A22AB20AA21A92290000A1200E6F52D
:0A04B6001E90000B1200E6F51C2258
:10055D00AB20AA21A92290000C12013EFFAEF0EFB4
:10056D001FAC0670011E4C6011EF54036006D2A43F
:0E057D00D2B680EBC2A4C2B680E5C2A4C2B65C
:01058B00224D
:10058C00AB20AA21A92290000E12013EFFAEF0EF83
:10059C001FAC0670011E4C6011EF54036006D2B7FD
:0E05AC00D2A580EBC2B7C2A580E5C2B7C2A53A
:0105BA00221E
:100640007F887E13EF1FAC0670011E4C6011EF54C3
:10065000036006D2B7D2A480EBC2B7C2A480E5C2C1
:03066000B7C2A47A
:010663002274
:10033600E4F526F527F524752505120664E5251549
:100346002570021524D3E5259401E524940050EA8E
:100356001202020527E5277002052614FF1206E59C
:100366007524017525F412069CB2A3E525152570A2
:10037600021524D3E5259401E524940050E880D0A5
:1003860030934130923E30913B309038120664E50E
:100396000EC394045021740F250EF8E6FDB4010532
:1003A60012055D8009EDB4020512058C8000120667
:1003B60040D28CD28E8006120336E4F50E050EAFBF
:0503C6000E1206E52205
:10066400C28EC28CE4F515F51AF51BF50CF50DF5E3
:0C0674001EF51CC2A5C2A4C2B6C2B7226B
:1004F70030930C3092093091063090030203863016
:10050700930302044C309003020486309205309125
:1005170002800C3092030206B73091030206CE1216
:0305270005E922C1
:10052A00E515C39414401DE4F515D2A4D2B7C2A5AB
:10053A00C2B6050DE50DAE0C7002050C144E700422
:10054A00F51AF51BE515B51E02C2B7E515B51C026D
:03055A00C2A42216
:0E06E500EF75F00A84E5F090028093F5232271
:1005BB00C283C285C280C281C282C286C284E52345
:1005CB00139284E523A2E19286A2E29282A2E392A5
:0E05DB0081A2E49280A2E59285A2E69283229C
:100680008F1FEF75F010A4248AF9740235F07520DD
:0C069000FFF5218922E51F04FF0206E5AA
:10040C00A2B5E43365097002E50860110519E51918
:10041C0070020518A2B5E433750800F509A2B4E41E
:10042C0033650B7002E50A60160517E517700205B7
:0F043C001614FF1206E5A2B4E433750A00F50B9F
:01044B00228E
:0300000002017684
:0C017600787FE4F6D8FD7581270201BDFA
:1000E600BB010CE58229F582E5833AF583E02250CF
:1000F60006E92582F8E622BBFE06E92582F8E22219
:0D010600E58229F582E5833AF583E4932232
:10011300BB010A89828A83E0F5F0A3E022500687B7
:10012300F009E71922BBFE07E3F5F009E319228979
:0B013300828A83E493F5F074019322AC
:10013E00BB0110E58229F582E5833AF583E0F5F0FF
:10014E00A3E0225009E92582F886F008E622BBFEDC
:10015E000AE92582F8E2F5F008E222E5832AF58322
:08016E00E993F5F0A3E99322E7
:1001820002000EE493A3F8E493A34003F68001F285
:1001920008DFF48029E493A3F85407240CC8C3337E
:1001A200C4540F4420C8834004F456800146F6DF4D
:1001B200E4800B01020408102040809004C0E47E19
:1001C200019360BCA3FF543F30E509541FFEE49342
:1001D200A360010ECF54C025E060A840B8E493A309
:1001E200FAE493A3F8E493A3C8C582C8CAC583CA34
:1001F200F0A3C8C582C8CAC583CADFE9DEE780BEEC
:0104F6000005
:00000001FF
