:0B000E0012061B1202021205C080F84F
:03000B000203CB22
:1003CB00C0E0C0F0C083C082C0D075D000C000C0F8
:1003DB0001C002C003C004C005C006C007C28C0523
:1003EB00161204F8D28CD007D006D005D004D00357
:1003FB00D002D001D000D0D0D082D083D0F0D0E0CA
:01040B0032BE
:03001B000202E6F8
:1002E600C0E0C0F0C083C082C0D075D000C000C0DE
:1002F60001C002C003C004C005C006C007C28E12FA
:10030600052FAB21AA22A923120113FDACF0ECF5AF
:100316008D8D8BD28ED007D006D005D004D003D0D9
:1003260002D001D000D0D0D082D083D0F0D0E0323D
:100280003F065B4F666D7D077F6FFF3806060406ED
:1002900003060604060330D42EE0FF3806060306E4
:1002A00002060603060230D42EE0FF3806060104DB
:1002B0000004040104002EE02EE0FF3809090305C4
:1002C0000005050305002EE02EE0FED40D0D050708
:1002D0000307070507032EE02EE0010201030104D6
:0602E0000002000300040F
:1004C000011600011F00011D00050F0102030201BA
:1004D000012000011500010E00011E0001140002A0
:1004E0001B0000020C0000021900000217000002AD
:0704F000080001020A0001EF
:0406A1007F0A7E004E
:1006A500D3EF9400EE64809480400B7DDCDDFEEF9B
:0606B5001F70ED1E80EA3B
:0106BB00221C
:10001E00C2877F017E001206A530A00630A1032004
:10002E00A205C2A31206A130A00630A10320A22170
:10003E0020A00830A0FDD2A37F012220A10830A16C
:10004E00FDD2A37F022220A20830A2FDD2A37F03FD
:10005E0022D287C2A77F017E001206A530A00630ED
:10006E00A10320A2031206A130A00630A10320A2F4
:10007E002120A00830A0FDD2A37F042220A10830A9
:10008E00A1FDD2A37F052220A20830A2FDD2A37F1C
:10009E000622D2A7C2A67F017E001206A530A006B8
:1000AE0030A10320A2031206A130A00630A1032026
:1000BE00A22120A00830A0FDD2A37F072220A108F4
:1000CE0030A1FDD2A37F082220A20830A2FDD2A328
:0800DE007F0922D2A67F002257
:1002020012001EEF24FE601214601324FB6014140B
:10021200604524087067AF208006AF0E8002AF1CD5
:100222000206EA0515E515C394064003E4F515AF89
:10023200151206EAE51525E024DBF582E43402F521
:1002420083E493F51EE51525E024DAF582E4340211
:10025200F583E493F51422B28CA28C928EA28CE4E4
:1002620033FFE520048FF0A4FF1206EAC2B7C2B63C
:0E027200C2A4C2A5E4F51BF51CF50CF50D2287
:10061B00D2AF758912758C9C758A9CD2A9C28C75C8
:10062B008DFC758B18D2ABC28EC2B2D2B3C297D22D
:0A063B00A3C2B7C2B6C2A4C2A52232
:1005EE00D3E50D951CE50C951B400BE520651460BD
:1005FE0005AF14020685AB21AA22A9239000021290
:0D060E0000E6F51F9000031200E6F51D2226
:1006BC00AB21AA22A9239000041200E6F51F90009A
:0706CC00051200E6F51D22F6
:1006D300AB21AA22A9239000081200E6F51F90007F
:0706E300091200E6F51D22DB
:10044C00D3E50D951CE50C951B4018E520651E6049
:10045C0012AF1E120685E50D2420F51CE50C3403A5
:10046C00F51B22AB21AA22A9239000061200E6F567
:0A047C001F9000071200E6F51D2294
:10048600D3E50D951CE50C951B4018E520651E600F
:1004960012AF1E120685E50D2420F51CE50C34036B
:1004A600F51B22AB21AA22A92390000A1200E6F529
:0A04B6001F90000B1200E6F51D2256
:10056200AB21AA22A92390000C12013EFFAEF0EFAC
:100572001FAC0670011E4C6011EF54036006D2A43A
:0E058200D2B680EBC2A4C2B680E5C2A4C2B657
:010590002248
:10059100AB21AA22A92390000E12013EFFAEF0EF7B
:1005A1001FAC0670011E4C6011EF54036006D2B7F8
:0E05B100D2A580EBC2B7C2A580E5C2B7C2A535
:0105BF002219
:100645007F887E13EF1FAC0670011E4C6011EF54BE
:10065500036006D2B7D2A480EBC2B7C2A480E5C2BC
:03066500B7C2A475
:01066800226F
:10033600E4F527F528F525752605120669E526153F
:100346002670021525D3E5269401E525940050EA8A
:100356001202020528E5287002052714FF1206EA94
:100366007525017526F41206A1B2A3E52615267099
:10037600021525D3E5269401E525940050E880D0A2
:1003860030934130923E30913B309038120669E509
:100396000EC394055021740F250EF8E6FDB4010531
:1003A6001205628009EDB40205120591800012065D
:1003B60045D28CD28E8006120336E4F50E050EAFBA
:0503C6000E1206EA2200
:10066900C28EC28CE4F516F51BF51CF50CF50DF5DB
:0C0679001FF51DC2B7C2B6C2A4C2A52264
:10052F0030930C30920930910630900302038630DD
:10053F00930302044C3090030204863092053091ED
:10054F0002800C3092030206BC3091030206D312D4
:03055F0005EE2284
:1004F800E516C39414401DE4F516D2B7C2B6D2A4CB
:10050800C2A5050DE50DAE0C7002050C144E700465
:10051800F51BF51CE516C3951F4002C2B7E516C3C7
:07052800951D4002C2A42250
:0E06EA00EF75F00A84E5F090028093F524226B
:1005C000C283C285C280C281C282C286C284E5243F
:1005D000139284E524A2E19286A2E29282A2E3929F
:0E05E00081A2E49280A2E59285A2E692832297
:100685008F20EF75F010A4248AF9740235F07521D6
:0C069500FFF5228923E52004FF0206EA9D
:10040C00A2B5E43365097002E5086011051AE51A16
:10041C0070020519A2B5E433750800F509A2B4E41D
:10042C0033650B7002E50A60160518E518700205B5
:0F043C001714FF1206EAA2B4E433750A00F50B99
:01044B00228E
:0300000002017684
:0C017600787FE4F6D8FD7581280201BDF9
:1000E600BB010CE58229F582E5833AF583E02250CF
:1000F60006E92582F8E622BBFE06E92582F8E22219
:0D010600E58229F582E5833AF583E4932232
:10011300BB010A89828A83E0F5F0A3E022500687B7
:10012300F009E71922BBFE07E3F5F009E319228979
:0B013300828A83E493F5F074019322AC
:10013E00BB0110E58229F582E5833AF583E0F5F0FF
:10014E00A3E0225009E92582F886F008E622BBFEDC
:10015E000AE92582F8E2F5F008E222E5832AF58322
:08016E00E993F5F0A3E99322E7
:1001820002000EE493A3F8E493A34003F68001F285
:1001920008DFF48029E493A3F85407240CC8C3337E
:1001A200C4540F4420C8834004F456800146F6DF4D
:1001B200E4800B01020408102040809004C0E47E19
:1001C200019360BCA3FF543F30E509541FFEE49342
:1001D200A360010ECF54C025E060A840B8E493A309
:1001E200FAE493A3F8E493A3C8C582C8CAC583CA34
:1001F200F0A3C8C582C8CAC583CADFE9DEE780BEEC
:0104F7000004
:00000001FF
