:0B000E0012046312020212061280F8B6
:03000B000203E20B
:1003E200C0E0C0F0C083C082C0D075D000C000C0E1
:1003F20001C002C003C004C005C006C007C28C050C
:100402001612054AD28CD007D006D005D004D003EC
:10041200D002D001D000D0D0D082D083D0F0D0E0B2
:0104220032A7
:03001B000202805E
:10028000C0E0C0F0C083C082C0D075D000C000C044
:1002900001C002C003C004C005C006C007C28E1260
:1002A0000581AB21AA22A923120113FDACF0C3E4FE
:1002B0009DFFE49CFE7808EF088006A2E0CE13CEF6
:1002C00013D8F8F58DEDF404F58BD28ED007D00657
:1002D000D005D004D003D002D001D000D0D0D0823D
:0702E000D083D0F0D0E03222
:1002E7003F065B4F666D7D077F6F00C805050105FB
:1002F70000050501050030D42EE000C806060306F8
:1003070002060603060230D42EE000C806060104E2
:100317000004040104002EE02EE000C809090305CB
:100327000005050305002EE02EE0012C0D0D050745
:100337000307070507032EE02EE000020003010272
:06034700010300040104A3
:10051200011600011F00011D00050F010203020167
:10052200012000011500010E00011E00011400024D
:100532001B0000020C00000219000002170000025A
:07054200080001020A00019C
:0406C9007F0A7E0026
:1006CD00D3EF9400EE64809480400B7DDCDDFEEF73
:0606DD001F70ED1E80EA13
:0106E30022F4
:10001E00C2877F017E001206CD30A00630A10320DC
:10002E00A205C2A31206C930A00630A10320A22148
:10003E0020A00830A0FDD2A37F012220A10830A16C
:10004E00FDD2A37F022220A20830A2FDD2A37F03FD
:10005E0022D287C2A77F017E001206CD30A00630C5
:10006E00A10320A2031206C930A00630A10320A2CC
:10007E002120A00830A0FDD2A37F042220A10830A9
:10008E00A1FDD2A37F052220A20830A2FDD2A37F1C
:10009E000622D2A7C2A67F017E001206CD30A00690
:1000AE0030A10320A2031206C930A00630A10320FE
:1000BE00A22120A00830A0FDD2A37F072220A108F4
:1000CE0030A1FDD2A37F082220A20830A2FDD2A328
:0800DE007F0922D2A67F002257
:1002020012001EEF24FE601214601324FB6014140B
:10021200604524087067AF208006AF0E8002AF1CD5
:100222000207120515E515C394064003E4F515AF60
:1002320015120712E51525E02442F582E43403F590
:1002420083E493F51EE51525E02441F582E43403A9
:10025200F583E493F51422B28CA28C928EA28CE4E4
:1002620033FFE520048FF0A4FF120712C2B7C2B613
:0E027200C2A4C2A5E4F51BF51CF50CF50D2287
:10046300D2AF758912758C9C758A9CD2A9C28C7E79
:10047300FC7F187808EF088006A2E0CE13CE13D8CD
:10048300F8F58D758B18D2ABC28EC2B2D2B3C297B8
:0B049300D2A3C2B7C2B6C2A4C2A52209
:10064000D3E50D951CE50C951B400BE5206514606A
:1006500005AF140206ADAB21AA22A9239000021215
:0D06600000E6F51F9000031200E6F51D22D4
:1006E400AB21AA22A9239000041200E6F51F900072
:0706F400051200E6F51D22CE
:1006FB00AB21AA22A9239000081200E6F51F900057
:07070B00091200E6F51D22B2
:10049E00D3E50D951CE50C951B4018E520651E60F7
:1004AE0012AF1E1206ADE50D2420F51CE50C34032B
:1004BE00F51B22AB21AA22A9239000061200E6F515
:0A04CE001F9000071200E6F51D2242
:1004D800D3E50D951CE50C951B4018E520651E60BD
:1004E80012AF1E1206ADE50D2420F51CE50C3403F1
:1004F800F51B22AB21AA22A92390000A1200E6F5D7
:0A0508001F90000B1200E6F51D2203
:1005B400AB21AA22A92390000C12013EFFAEF0EF5A
:1005C4001FAC0670011E4C6011EF54036006D2A4E8
:0E05D400D2B680EBC2A4C2B680E5C2A4C2B605
:0105E20022F6
:1005E300AB21AA22A92390000E12013EFFAEF0EF29
:1005F3001FAC0670011E4C6011EF54036006D2B7A6
:0E060300D2A580EBC2B7C2A580E5C2B7C2A5E2
:0106110022C6
:10066D007F887E13EF1FAC0670011E4C6011EF5496
:10067D00036006D2B7D2A480EBC2B7C2A480E5C294
:03068D00B7C2A44D
:010690002247
:10034D00E4F527F528F525752605120691E5261500
:10035D002670021525D3E5269401E525940050EA73
:10036D001202020528E5287002052714FF12071254
:10037D007525017526F41206C9B2A3E5261526705A
:10038D00021525D3E5269401E525940050E880D08B
:10039D0030934130923E30913B309038120691E5CA
:1003AD000EC394055021740F250EF8E6FDB401051A
:1003BD001205B48009EDB402051205E380001206A2
:1003CD006DD28CD28E800612034DE4F50E050EAF64
:0503DD000E12071222C0
:10069100C28EC28CE4F516F51BF51CF50CF50DF5B3
:0C06A1001FF51DC2B7C2B6C2A4C2A5223C
:1005810030930C30920930910630900302039D3074
:10059100930302049E3090030204D83092053091F7
:1005A10002800C3092030206E43091030206FB1232
:0305B100064022DF
:10054A00E516C39414401DE4F516D2B7C2B6D2A478
:10055A00C2A5050DE50DAE0C7002050C144E700413
:10056A00F51BF51CE516C3951F4002C2B7E516C375
:07057A00951D4002C2A422FE
:0E071200EF75F00A84E5F09002E793F52422DB
:10061200C283C285C280C281C282C286C284E524EC
:10062200139284E524A2E19286A2E29282A2E3924C
:0E06320081A2E49280A2E59285A2E692832244
:1006AD008F20EF75F010A424F1F9740235F0752147
:0C06BD00FFF5228923E52004FF0207124C
:10042300A2B5E43365097002E5086011051AE51AFF
:1004330070020519A2B5E433750800F509A2B4E406
:1004430033650B7002E50A60160518E5187002059E
:0F0453001714FF120712A2B4E433750A00F50B59
:010462002277
:0300000002017684
:0C017600787FE4F6D8FD7581280201BDF9
:1000E600BB010CE58229F582E5833AF583E02250CF
:1000F60006E92582F8E622BBFE06E92582F8E22219
:0D010600E58229F582E5833AF583E4932232
:10011300BB010A89828A83E0F5F0A3E022500687B7
:10012300F009E71922BBFE07E3F5F009E319228979
:0B013300828A83E493F5F074019322AC
:10013E00BB0110E58229F582E5833AF583E0F5F0FF
:10014E00A3E0225009E92582F886F008E622BBFEDC
:10015E000AE92582F8E2F5F008E222E5832AF58322
:08016E00E993F5F0A3E99322E7
:1001820002000EE493A3F8E493A34003F68001F285
:1001920008DFF48029E493A3F85407240CC8C3337E
:1001A200C4540F4420C8834004F456800146F6DF4D
:1001B200E4800B0102040810204080900512E47EC6
:1001C200019360BCA3FF543F30E509541FFEE49342
:1001D200A360010ECF54C025E060A840B8E493A309
:1001E200FAE493A3F8E493A3C8C582C8CAC583CA34
:1001F200F0A3C8C582C8CAC583CADFE9DEE780BEEC
:0105490000B1
:00000001FF
