:0B000E001204A81201721205DA80F83B
:03000B0002036885
:10036800C0E0C0F0C083C082C0D075D000C000C05B
:1003780001C002C003C004C005C006C007C28C0586
:1003880015120549758CFF758ACED28CD007D00618
:10039800D005D004D003D002D001D000D0D0D08274
:0703A800D083D0F0D0E03259
:03001B000203AF2E
:1003AF00C0E0C0F0C083C082C0D075D000C000C014
:1003BF0001C002C003C004C005C006C007C28E1230
:1003CF000516758DF8758B30D28ED007D006D005F7
:1003DF00D004D003D002D001D000D0D0D082D083AF
:0503EF00D0F0D0E03267
:10026E003F065B4F666D7D077F6F04040204010439
:10027E00040204012EE02EE005050105000505012E
:10028E0005002EE02EE0060601050005050105001D
:10029E002EE02EE0090903050005050305002EE0FA
:1002AE002EE00D0D05070307070507032EE02EE0D0
:0C02BE000200030004000201030104011F
:1004DF00011500011E00011C00040F0201010201A1
:1004EF001F00011400010E00011D01011302021A69
:1004FF000000020C000002180000021600000208A3
:06050F000001020A0001D8
:04068E007F0A7E0061
:10069200D3EF9400EE64809480400B7DDCDDFEEFAE
:0606A2001F70ED1E80EA4E
:0106A800222F
:10001E00C2877F017E0012069230A00630A1032017
:10002E00A205C2A312068E30A00630A10320A22183
:10003E0020A00830A0FDD2A37F012220A10830A16C
:10004E00FDD2A37F022220A20830A2FDD2A37F03FD
:10005E0022D287C2A77F017E0012069230A0063000
:10006E00A10320A20312068E30A00630A10320A207
:10007E002120A00830A0FDD2A37F042220A10830A9
:10008E00A1FDD2A37F052220A20830A2FDD2A37F1C
:10009E000622D2A7C2A67F017E0012069230A006CB
:1000AE0030A10320A20312068E30A00630A1032039
:1000BE00A22120A00830A0FDD2A37F072220A108F4
:1000CE0030A1FDD2A37F082220A20830A2FDD2A328
:0800DE007F0922D2A67F002257
:1001720012001EEF24FE601214601324FB6014149C
:10018200604524087067AF1F8006AF0E8002AF1B68
:100192000206D70514E514C394064003E4F514AF30
:1001A200141206D7E51425E024BFF582E43402F5E3
:1001B20083E493F51DE51425E024BEF582E43402C0
:1001C200F583E493F51322B28CA28C928EA28CE476
:1001D20033FFE51F048FF0A4FF1206D7C2B7C2B6E1
:0E01E200C2A4C2A5E4F51AF51BF50CF50D221A
:1004A800D2AF758911758CFF758ACED2A9C28C75A9
:1004B8008DF8758B30D2ABC28EC2B2D2B3C297D28E
:1004C800A3C2B7C2B6C2A4C2A57520FF7521027522
:0704D8002278E4FF0206D7C1
:10060800D3E50D951BE50C951A400BE51F651360A6
:1006180018AF13020672AB20AA21A9221201F0F525
:0A0628001E900001120209F51C22C9
:1006A900AB20AA21A922900002120209F51E90008E
:0706B90003120209F51C22E7
:1006C000AB20AA21A922900006120209F51E900073
:0706D00007120209F51C22CC
:10043400D3E50D951BE50C951A4018E51F651D6065
:1004440028AF1D120672E50D2420F51BE50C3403BC
:10045400F51A22AB20AA21A922900004120209F560
:0A0464001E900005120209F51C228B
:10046E00D3E50D951BE50C951A4018E51F651D602B
:10047E0028AF1D120672E50D2420F51BE50C340382
:10048E00F51A22AB20AA21A922900008120209F522
:0A049E001E900009120209F51C224D
:10057C00AB20AA21A92290000A120236FFAEF0EF9E
:10058C001FAC0670011E4C6011EF54036006D2A420
:0E059C00D2B680EBC2A4C2B680E5C2A4C2B63D
:0105AA00222E
:1005AB00AB20AA21A92290000C120236FFAEF0EF6D
:1005BB001FAC0670011E4C6011EF54036006D2B7DE
:0E05CB00D2A580EBC2B7C2A580E5C2B7C2A51B
:0105D90022FF
:100632007F887E13EF1FAC0670011E4C6011EF54D1
:10064200036006D2B7D2A480EBC2B7C2A480E5C2CF
:03065200B7C2A488
:010655002282
:1002CA00E4F526F527F524752505120656E52515C4
:1002DA002570021524D3E5259401E524940050EAFB
:1002EA001201720527E5277002052614FF1206D7A8
:1002FA007524017525F412068EB2A3E5251525701D
:10030A00021524D3E5259401E524940050E880D011
:10031A0030934A309247309144309041120656E564
:10032A000EC39404502A740F250EF8E6FDB4010595
:10033A0012057C8012EDB402051205AB8009740F18
:10034A00250EF8E6B4030F120632D28CD28E80063E
:0E035A001202CAE4F50E050EAF0E1206D722EF
:10065600C28EC28CE4F515F51AF51BF50CF50DF5F1
:0C0666001EF51CC2A5C2A4C2B6C2B72279
:1005160030930C30920930910630900302031A3062
:10052600930302043430900302046E309205309136
:1005360002800C3092030206A93091030206C01213
:0305460006082282
:10054900E515D39413401DE4F515D2B7D2A4C2B66C
:10055900C2A5050DE50DAE0C7002050C144E700414
:10056900F51AF51BE515B51E02C2B7E515B51C024E
:03057900C2A422F7
:0E06D700EF75F00A84E5F090026E93F5232291
:1005DA00C283C285C280C281C282C286C284E52326
:1005EA00139284E523A2E19286A2E29282A2E39286
:0E05FA0081A2E49280A2E59285A2E69283227D
:100672008F1FEF75F00EA42478F9740235F07520FF
:0C068200FFF5218922E51F04FF0206D7C6
:1003F400A2B5E43365097002E50860110519E51931
:1004040070020518A2B5E433750800F509A2B4E436
:1004140033650B7002E50A60160517E517700205CF
:0F0424001614FF1206D7A2B4E433750A00F50BC5
:0104330022A6
:030000000200E615
:0C00E600787FE4F6D8FD75812702012D1B
:1001F000BB010689828A83E0225002E722BBFE020D
:09020000E32289828A83E493223F
:10020900BB010CE58229F582E5833AF583E02250AA
:1002190006E92582F8E622BBFE06E92582F8E222F4
:0D022900E58229F582E5833AF583E493220E
:10023600BB0110E58229F582E5833AF583E0F5F006
:10024600A3E0225009E92582F886F008E622BBFEE3
:100256000AE92582F8E2F5F008E222E5832AF58329
:08026600E993F5F0A3E99322EE
:1000F20002000EE493A3F8E493A34003F68001F216
:1001020008DFF48029E493A3F85407240CC8C3330E
:10011200C4540F4420C8834004F456800146F6DFDD
:10012200E4800B01020408102040809004DFE47E8A
:10013200019360BCA3FF543F30E509541FFEE493D2
:10014200A360010ECF54C025E060A840B8E493A399
:10015200FAE493A3F8E493A3C8C582C8CAC583CAC4
:10016200F0A3C8C582C8CAC583CADFE9DEE780BE7C
:0105150000E5
:00000001FF
