:0E07510012048C1203481205BB12051180F52C
:03000B000204D01C
:1004D000C0E0C0F0C083C082C0D075D000C000C0F2
:1004E00001C002C003C004C005C006C007C28C051D
:1004F00019120551D28CD007D006D005D004D003F4
:10050000D002D001D000D0D0D082D083D0F0D0E0C3
:0105100032B8
:03001B0002028C52
:10028C00C0E0C0F0C083C082C0D075D000C000C038
:10029C0001C002C003C004C005C006C007C28E1254
:1002AC000588C3E49526FFE49525FE7808EF0880C1
:1002BC0006A2E0CE13CE13D8F8F58DAF26EFF404DA
:1002CC00F58BD28ED007D006D005D004D003D00247
:0F02DC00D001D000D0D0D082D083D0F0D0E0328B
:100442003F065B4F666D7D077F6F05DC0404010488
:1004520000040401040030D42EE001F40404010479
:1004620000040401040030D42EE003E8060601046F
:1004720000040401040030D42EE001F40F0F03063F
:0A04820002060603060230D42EE045
:1002EB00011900012A00012700012804012904013A
:1002FB002001012104012D00012F04011C04011F09
:10030B0001012B04012C00021530D402172EE00240
:10031B002507D001303F060F010203020301012E16
:10032B0000010E0002220000020C0000021D000062
:0C033B00021A000002080001020A000182
:040736007F0A7E00B8
:10073A00D3EF9400EE64809480400B7DDCDDFEEF05
:06074A001F70ED1E80EAA5
:010750002286
:10013800C2877F017E0012073A30A00630A1032053
:10014800A205C2A312073630A00630A10320A221BF
:1001580020A00830A0FDD2A37F012220A10830A151
:10016800FDD2A37F022220A20830A2FDD2A37F03E2
:1001780022D287C2A77F017E0012073A30A006303C
:10018800A10320A20312073630A00630A10320A243
:100198002120A00830A0FDD2A37F042220A108308E
:1001A800A1FDD2A37F052220A20830A2FDD2A37F01
:1001B8000622D2A7C2A67F017E0012073A30A00607
:1001C80030A10320A20312073630A00630A1032075
:1001D800A22120A00830A0FDD2A37F072220A108D9
:1001E80030A1FDD2A37F082220A20830A2FDD2A30D
:0801F8007F0922D2A67F00223C
:10034800120138EF24FE601214601324FB601414A9
:10035800602224087044AF2E8006AF0E8002AF23BF
:1003680002075F052EE52EC394044003E4F52EAF83
:100378002E02001EB28CA28C928EA28CE433FFE572
:100388002E048FF0A4FF12075FC2B7C2B6C2A4C280
:0B039800A5E4F522F523F50CF50D227D
:10048C00D2AF758912758CB0758AB0D2A9C28CC3E3
:10049C00E49526FFE49525FE7808EF088006A2E097
:1004AC00CE13CE13D8F8F58DAF26EFF404F58BD21E
:1004BC00ABC28EC2B2D2B3C297D2A3C2B7C2B6C2BB
:0404CC00A4C2A522FF
:1006FD00D3E50D9523E50C9522400BE52E640360A3
:0D070D00057F0302001E85282A852927226A
:1005E900D3E50D9523E50C95224018E52E640160AD
:1005F900127F0112001EE50D2458F523E50C340283
:0A060900F5222285202A85212722F0
:10061300D3E50D9523E50C95224018E52E64016082
:10062300127F0112001EE50D2458F523E50C340258
:0A063300F52222851C2A851F2722CC
:10063D00D3E50D9523E50C95224018E52E64016058
:10064D00127F0112001EE50D2420F523E50C340365
:0A065D00F52222852D2A852F272281
:10066700D3E50D9523E50C95224018E52E6401602E
:10067700127F0112001EE50D2420F523E50C34033B
:0A068700F52222852B2A852C27225C
:10069100AF16AE15EF1FAC0670011E4C6011EF5482
:1006A100036006D2A4D2B680EBC2A4C2B680E5C272
:0306B100A4C2B62A
:0106B4002223
:1006B500AF18AE17EF1FAC0670011E4C6011EF545A
:1006C500036006D2B7D2A580EBC2B7C2A580E5C24A
:0306D500B7C2A504
:0106D80022FF
:1006D9007F887E13EF1FAC0670011E4C6011EF542A
:1006E900036006D2B7D2A480EBC2B7C2A480E5C228
:0306F900B7C2A4E1
:0106FC0022DB
:1003A300E4F533F534F53175320512071AE53215E4
:1003B3003270021531D3E5329401E531940050EAED
:1003C3001203480534E5347002053314FF12075F46
:1003D3007531017532F4120736B2A3E53215327066
:1003E300021531D3E5329401E531940050E880D011
:1003F30030934B30924830914530904212071AE5C2
:100403000EC39406502B740F250EF8E6B4010812A0
:1004130006911206FD8014740F250EF8E6B4020847
:100423001206B51206FD80031206D9D28CD28E8035
:0F043300061203A3E4F50E050EAF0E12075F22AB
:10071A00C28EC28CE4F519F522F523F50CF50DF518
:0C072A002AF527C2B7C2B6C2A4C2A5229D
:1005880030930C3092093091063090030203F33017
:10059800930302063D3090030206673092053091BE
:1005A80002800C3092030205E9309103020613120F
:0305B80006FD221B
:10055100E519C39414401DE4F519D2B7C2B6D2A46B
:10056100C2A5050DE50DAE0C7002050C144E70040C
:10057100F522F523E519C3952A4002C2B7E519C34F
:0705810095274002C2A422ED
:0E075F00EF75F00A84E5F090044293F5302225
:1005BB00C283C285C280C281C282C286C284E53038
:1005CB00139284E530A2E19286A2E29282A2E39298
:0E05DB0081A2E49280A2E59285A2E69283229C
:10001E008F2EC3EF648094805005E4F52E800BC3C1
:10002E00EF648094844003752E04E52EC454F024AE
:10003E004CF582E43404F583E493F525740193F5CD
:10004E0026E52EC454F0244EF582E43404F583E400
:10005E0093F528E52EC454F0244FF582E43404F5CC
:10006E0083E493F529E52EC454F02450F582E4344C
:10007E0004F583E493F520E52EC454F02451F58263
:10008E00E43404F583E493F521E52EC454F02452B0
:10009E00F582E43404F583E493F52DE52EC454F093
:1000AE002453F582E43404F583E493F52FE52EC44E
:1000BE0054F02454F582E43404F583E493F51CE5FE
:1000CE002EC454F02455F582E43404F583E493F5FC
:1000DE001FE52EC454F02456F582E43404F583E46F
:1000EE0093F52BE52EC454F02457F582E43404F531
:1000FE0083E493F52CE52EC454F02458F582E434B1
:10010E0004F583E493F515740193F516E52EC454A6
:10011E00F0245AF582E43404F583E493F517740160
:0A012E0093F518E52E04FF02075FA9
:10051100A2B5E43365097002E5086011051EE51E08
:100521007002051DA2B5E433750800F509A2B4E413
:1005310033650B7002E50A6016051BE51B700205A9
:0F0541001A14FF12075FA2B4E433750A00F50B1A
:010550002288
:03000000020200F9
:0C020000787FE4F6D8FD758134020247D7
:10020C00020751E493A3F8E493A34003F68001F2B0
:10021C0008DFF48029E493A3F85407240CC8C333F3
:10022C00C4540F4420C8834004F456800146F6DFC2
:10023C00E4800B01020408102040809002EBE47E65
:10024C00019360BCA3FF543F30E509541FFEE493B7
:10025C00A360010ECF54C025E060A840B8E493A37E
:10026C00FAE493A3F8E493A3C8C582C8CAC583CAA9
:10027C00F0A3C8C582C8CAC583CADFE9DEE780BE61
:0103470000B5
:00000001FF
